:020000040800F2
:10000000C017002031020008A11F0008291E0008A7
:100010004D1F000813070008B92900080000000060
:10002000000000000000000000000000990100082E
:100030005707000800000000DD01000881250008C6
:100040004B0200084B0200084B0200084B0200085C
:100050004B0200084B0200084B0200084B0200084C
:100060004B0200084B0200084B0200084B0200083C
:100070004B0200084B020008150700082107000882
:100080004B0200084B0200084B0200084B0200081C
:100090004B0200084B0200084B0200084B0200080C
:1000A0004B0200084B0200084B0200084B020008FC
:1000B0000D2600084B0200084B0200084B02000806
:1000C0004B0200084B0200084B0200084B020008DC
:1000D0004B020008AD2900084B0200084B02000843
:1000E0004B0200084B0200084B02000800F002F827
:1000F00000F042F80AA090E8000C82448344AAF180
:100100000107DA4501D100F037F8AFF2090EBAE87D
:100110000F0013F0010F18BFFB1A43F0010318473B
:1001200098360000B8360000103A24BF78C878C16D
:10013000FAD8520724BF30C830C144BF04680C60ED
:10014000704700000023002400250026103A28BF35
:1001500078C1FBD8520728BF30C148BF0B60704739
:10016000782900F0EB80732900F095820020704719
:100170001FB51FBD10B510BD00F091FA1146FFF775
:10018000F7FF02F07BFC00F0AFFA03B4FFF7F2FFD9
:1001900003BC00F0B7FA0000224B19680868B0E809
:1001A000F00F80F30988BFF36F8F4FF0000080F3EA
:1001B00011884EF00D0E70470000000006480068E0
:1001C000006880F3088862B661B6BFF34F8FBFF353
:1001D0006F8F00DF00BF00BF08ED00E0EFF3098084
:1001E000BFF36F8F0F4B1A6820E9F00F106008B54E
:1001F0004FF0500080F31188BFF34F8FBFF36F8F24
:1002000003F0BAF84FF0000080F31188BDE8084011
:1002100019680868B0E8F00F80F30988BFF36F8FA2
:10022000704700BF28000020EFF3058070470000F2
:100230000948804709480047FEE7FEE7FEE7FEE77A
:10024000FEE7FEE7FEE7FEE7FEE7FEE704480549B6
:10025000054A064B704700000B260008ED00000819
:10026000C0110020C0170020C0130020C0130020C0
:100270000FB41CB5084B06AA7B446946009005984C
:1002800000F0DFF904460020694600F0EDF9204651
:100290001CBC5DF814FB0000ED03000070B50446C3
:1002A00085690068C10601D5302600E02026C00718
:1002B00007D070BDD4E9012130469047206A401C28
:1002C00020626D1EF6D570BD70B504468569007854
:1002D000C00707D170BDD4E9012120209047206AD2
:1002E000401C20626D1EF6D570BD70B50C460546EB
:1002F000012A05D02878800600D5EA69002302E0AB
:10030000012305E05B1C934202D2E05C0028F9D196
:10031000A869E618C01AA861286A18442862284605
:10032000FFF7BCFF04E0D5E9012114F8010B904769
:10033000B442F8D32846FFF7C7FF70BD70B5044636
:100340000D4621461068AFF300802188090502D5CB
:100350000F4A7A4402E00E4A7A440E32002104F138
:10036000240305E000F00F060009965D5E54491C69
:100370000028F7D120780023000704D5702D02D083
:1003800009B1022311322046BDE8704000F0FAB8EE
:100390000A3400002DE9F05F894604464FF0000A58
:1003A000DFF824B1FB44C0F820A02046E16888476C
:1003B00000287DD0252806D0D4E901219047206A65
:1003C000401C2062F1E700255F462046E16888472F
:1003D0002028064607DB312E05D2B81910F8200C6C
:1003E00008B10543F1E7A80701D525F00405C4F8D5
:1003F0001CA00027C4F818A02A2E09D0304602F00D
:10040000ECFA38B304EB8708303EC8F8186019E0FE
:1004100059F8041B204604EB87029161E168884784
:10042000012F064618D1E069002820DA25F02005C2
:100430001DE0D8F8180000EB800006EB40003038D3
:10044000C8F818002046E1688847064602F0C5FA59
:100450000028EED1012F0AD02E2E08D12046E168C7
:1004600088477F1C0646022F45F02005C4DBA069A3
:10047000002803DA404245F00105A061E80701D0F9
:1004800025F01005A6B1A6F14100192802D82036A2
:1004900045F400654A463146204625604D46FFF743
:1004A0005FFE60B1012807D0ED1D25F0070000E0D8
:1004B00007E000F1080978E705F1040975E730461F
:1004C0007AE7206ABDE8F09FE033000010B5203ADB
:1004D000C0F00B80B1E81850203AA0E81850B1E8FD
:1004E0001850A0E81850BFF4F5AF5FEA027C24BFB3
:1004F000B1E81850A0E8185044BF18C918C0BDE8AA
:1005000010405FEA827C24BF51F8043B40F8043B72
:1005100008BF7047D20728BF31F8023B48BF11F827
:10052000012B28BF20F8023B48BF00F8012B704781
:100530004FF0000200B5134694469646203922BF7C
:10054000A0E80C50A0E80C50B1F12001BFF4F7AFC7
:10055000090728BFA0E80C5048BF0CC05DF804EBA9
:10056000890028BF40F8042B08BF704748BF20F817
:10057000022B11F0804F18BF00F8012B7047704715
:10058000704770472DE9F0470D469946924604465C
:1005900000F124080168880604D5E06921F0100103
:1005A000216000E00120A84201DD471B00E0002798
:1005B000A1697A1902EB0900081AA0612078C00627
:1005C00002D42046FFF76AFE002608E0D4E90121A4
:1005D0001AF806009047206A401C761C20624E459F
:1005E000F4DB2078C0060AD52046FFF757FE06E068
:1005F000D4E9012130209047206A401C2062381E37
:10060000A7F10107F4DC07E0D4E9012118F805009F
:100610009047206A401C2062281EA5F10105F3DCEA
:100620002046FFF751FE2078000602D50220BDE8E3
:10063000F0870120FBE7000001694A1C026108788D
:10064000704700B58FB0CDE9013100210591054912
:100650007944CDE9031011466846FFF79BFE0FB0C1
:1006600000BD0000E5FFFFFF0A6802F8010B0A6009
:10067000704710B5436913B1AFF3008001E0FFF795
:1006800034FE012010BD127800F124010A7000220E
:100690004A700122EDE711684FF0FF32E9E7754635
:1006A00000F02CF8AE4605006946534620F00700DE
:1006B000854618B020B5FFF7C9FDBDE820404FF0D2
:1006C00000064FF000074FF000084FF0000B21F03C
:1006D0000701AC46ACE8C009ACE8C009ACE8C00909
:1006E000ACE8C0098D46704710B50446AFF30080F2
:1006F0002046BDE81040FFF748BD000000487047A5
:100700006011002001491820ABBEFEE72600020060
:100710007047FEE7014800F0B5B800004C0100202A
:10072000014800F0AFB800009001002030B590F80B
:1007300040500124AC40C56B6C6004686360436842
:10074000102B036803D099600068C26030BD9A60C6
:100750000068C16030BD704701B5074807490068AF
:10076000B0FBF1F0009948430090411E009101D385
:100770000846FAE708BD0000240000204054890024
:10078000054C642002F03CFA207802F02DF9014675
:1007900002A001F0DDFBF4E708000020414D490014
:1007A00072B6FEE710B590F821100022022905D09C
:1007B0000421816380F82020012010BD01680B68AE
:1007C00023F00E030B6001680B6823F001030B603C
:1007D00090F84030C46B012101FA03F3636080F8A4
:1007E000211080F82020104610BD000010B590F8B0
:1007F00021100024022903D00421816301243DE05B
:1008000001680A6822F00E020A6001680A6822F094
:1008100001020A601A4A0168914201D1012121E0D6
:10082000174A1432914201D110211BE0144A283298
:10083000914201D1891515E0114A3C32914201D112
:1008400089140FE00E4A5032914202D14FF48031A8
:1008500008E00B4A6432914202D14FF4801101E06A
:100860004FF08071064A083A5160012180F821104A
:10087000002180F82010416B01B18847204610BD4F
:10088000080002402DE9F05FC16B0C6801680B683D
:10089000D0F840C0042202FA0CF2494DDFF824A13E
:1008A000494E4A4FDFF828B1DFF828E122422CD028
:1008B0005A072AD50A68920603D40A6822F004026D
:1008C0000A600168A94201D1042219E0514501D111
:1008D000402215E0B14202D14FF4806210E0B942EB
:1008E00002D14FF480420BE0594502D14FF48022EF
:1008F00006E0714502D14FF4800201E04FF08062C2
:100900002F4908394A60C16A3BE04FF0020808FAF3
:100910000CF818EA040F4FF000094FF0010235D02F
:100920005FEA837832D50B689B0605D40B6823F009
:100930000A030B6080F821200168A94201D102223C
:1009400019E0514501D1202215E0B14202D14FF406
:10095000007210E0B94202D14FF400520BE0594549
:1009600002D14FF4003206E0714502D14FF400127B
:1009700001E04FF00072124908394A6080F8209077
:10098000816A00291AD0BDE8F05F0847082505FAFA
:100990000CF5254212D01B0710D50B6823F00E036F
:1009A0000B6090F84010C36B02FA01F1596082634A
:1009B00080F8212080F82090016BE2E7BDE8F09FED
:1009C000080002401C000240300002404400024087
:1009D000580002406C00024030B528B308C81349E3
:1009E00014221944B1FBF2F18900C16310498163FB
:1009F000022141771A6843F6F0718A43D0E9001466
:100A00002143D0E902452C43214304692143446931
:100A1000214384692143114319600021416301226C
:100A200042770177084630BD012030BDF8FFFDBF99
:100A30000000024070B5044690F82000002501280F
:100A40000CD0012084F8200094F821600020012EB1
:100A500006D084F820000225284670BD022070BD13
:100A6000022684F82160A0632068066826F001064B
:100A700006602046FFF75AFEE06A002820680168F9
:100A800002D041F00E0106E021F00401016020686F
:100A9000016841F00A0101602068016841F001012C
:100AA0000160D9E770B5044600F008F90546601CFE
:100AB00002D004480078044400F000F9401BA04232
:100AC000FAD370BD180000202DE9F84FDFF8B89177
:100AD000002409F1040A0AF1040B23460F270BF145
:100AE000040EC9E00125A5402A40AA427DD1674EE7
:100AF000D1F804C0ACEB0608B44532D014DCBCF12C
:100B0000030F3AD009DCBCF1000F2AD0BCF1010F71
:100B10001CD0BCF1020F31D11DE0BCF1110F17D078
:100B2000BCF1120F2AD119E0B8F5881F19D006DCE4
:100B3000B8F5803F15D0B8F5801F1FD111E0B8F58A
:100B4000001F0ED0B8F5041F18D10AE0CB6815E0DD
:100B5000CB681B1D12E0CB6808330FE0CB680C3369
:100B60000CE08B682BB1012B4FF0080303D04561DB
:100B700004E0042302E0056100E00023FF2A01D81D
:100B8000064601E000F104064FEA840501D9A5F10B
:100B90002005D6F8008007FA05FC28EA0C0803FABD
:100BA00005F548EA0508C6F800804D68ED0062D5F5
:100BB000374DAE6946F00106AE61AD6924F003061B
:100BC00005F001050095334D06EB050CDCF80850E7
:100BD000A607360F07FA06F825EA0805DFF8B880F9
:100BE000404503D14FF0000817E044E0DFF8AC8047
:100BF000404502D14FF001080FE0DFF8A4804045E6
:100C000002D14FF0020808E0DFF89880404502D199
:100C10004FF0030801E04FF0040808FA06F848EA2C
:100C20000508CCF808804D68D9F80060ED034D4602
:100C300001D5164300E096432E604D68DAF8006057
:100C4000AD03554601D5164300E096432E604D682E
:100C5000DBF80060ED025D4601D5164300E09643E7
:100C60002E604D68DEF80060AD02754601D5164372
:100C700000E096432E60641C0D682A46E5407FF430
:100C800031AFBDE8F88F00000004014000001110F2
:100C9000001002400000014000080140000C01402B
:100CA00000100140001401408068084000D001207D
:100CB00070470AB1016170470904FBE70148806889
:100CC0007047000018000020024881680278114433
:100CD0008160704718000020074810B5016841F096
:100CE00010010160032000F095F80F2000F006F8D5
:100CF00000F03EF8002010BD0020024000B5014683
:100D000087B000221C2000F065F81C2000F054F889
:100D10001448C16941F00101C161C06905A900F031
:100D200001000690684600F01DF900F03BF90E49FD
:100D30004000B0FBF1F10D484FF08042491E0260C7
:100D4000416040F2E7320021C0E90321816000F0F8
:100D500049FD10B1012007B000BD044800F070FD4E
:100D6000F9E700000010024040420F002804002074
:100D70000F4808B5816941F001018161816901F085
:100D800001010091C16941F08051C161C069002237
:100D900000F0805000900F21901E00F01BF80548D5
:100DA000416821F0E06141F00071416008BD000040
:100DB0000010024000000140002809DB00F01F0283
:100DC000012191404009800000F1E020C0F80011AD
:100DD00070470000F0B40E4B1B680C46C3F30223AF
:100DE000C3F10705042D00D90425191D072901D2D7
:100DF000002300E0DB1E012606FA05F1491E214012
:100E000099409E40761E16403143F0BC01F0D5BD9E
:100E10000CED00E0064900F0070208684FF6FF03FA
:100E2000184040EA0220034A10430860704700005F
:100E30000CED00E00000FA052DE9F0470F46050033
:100E400061D0434E306800F00700B84209D23068E4
:100E500020F0070038433060306800F00700B842E7
:100E600051D128683B4C810712D5400703D56068F3
:100E700040F4E06060602878000703D5606840F4C3
:100E8000605060606068A96820F0F000084360600E
:100E90002878C00728D06868012810D02168022867
:100EA00010D0890700292EDA616821F0030101437F
:100EB0006160FFF703FF804641F288390DE0216849
:100EC0008903EFE78901EDE7FFF7F8FEA0EB0801E2
:100ED000494502D90320BDE8F0876068696800F0E1
:100EE0000C00B0EB810FEFD1306800F00700B84282
:100EF0000BD9306820F0070038433060306800F0CC
:100F00000700B84201D00120E5E72878400705D561
:100F10006068E96820F4E0600843606028780007B2
:100F200006D56068296920F4605040EAC10060601D
:100F300000F058F86168084AC1F30311515CC840D9
:100F40000649086006480068FFF7D8FE0020C2E79F
:100F50000020024000100240483700082400002012
:100F60001C0000200F2202600C4A536803F00303A8
:100F70004360536803F0F0038360536803F4E06355
:100F8000C36052684FF4E06303EAD202026104488E
:100F9000006800F007000860704700000010024081
:100FA000002002400448054900684968044AC1F32A
:100FB0000221515CC840704724000020001002400C
:100FC000583700080448054900684968044AC1F3D5
:100FD000C221515CC840704724000020001002402C
:100FE0005837000812A185B00FC98DE80F0014A072
:100FF000144A006804905168134801F00C03042B54
:1010000010D0082B0ED1C1F38343C9031DF8030090
:101010000AD5516804AAC1F34041515C0A4A5043C1
:10102000B0FBF1F005B0704708494843FAE700000B
:1010300002030405060708090A0B0C0D0E0F101019
:10104000010200000010024000127A0000093D0079
:101050002DE9F84F040070D02078C04DC00749D06A
:101060006868C0F38100012807D06868C0F3810078
:10107000022809D16868C00306D52868800339D5DD
:1010800060680028E7D035E06068B0F5803F0BD09D
:1010900010B1B0F5A02F11D0286820F4803028605E
:1010A000286820F4802002E0286840F4803028601E
:1010B000606890B1FFF702FE06460AE0286840F437
:1010C00080202860F0E700BFFFF7F8FD801B642850
:1010D00073D828688003F7D50CE0FFF7EFFD0646CC
:1010E00005E000BFFFF7EAFD801B6428F0D8286800
:1010F0008003F7D420789A4E80074FF001094FF013
:10110000000839D5686810F00C0F07D06868C0F384
:101110008100022809D16868C00306D428688007C6
:1011200014D52069012808D110E02069B0B1C6F8B3
:101130000090FFF7C3FD074605E00AE1FFF7BEFD9B
:10114000C01B0228C4D828688007F7D528686169C1
:1011500020F0F80040EAC10028600DE0C6F80080E9
:10116000FFF7ACFD074604E0FFF7A8FDC01B02280F
:1011700023D828688007F7D4207800072CD5794831
:10118000A169D9B1C0F80090FFF798FD074604E0C7
:10119000FFF794FDC01B02280FD8686A8007F7D5B7
:1011A00071484FF4FA510068B0FBF1F0009000BFB5
:1011B0000098411E0091FAD20EE080E0C0F8008055
:1011C000FFF77CFD074604E0FFF778FDC01B02280F
:1011D00075D8686A8007F7D42078400760D5E86939
:1011E0000027C00008D4E86940F08050E861E86951
:1011F000012700F0805000905C480168C90513D4B5
:101200000168834641F480710160FFF757FD824613
:1012100006E000BFFFF752FDA0EB0A0064284ED89D
:10122000DBF80000C005F5D5E06801280AD008B158
:10123000052813D0286A20F001002862286A20F0CF
:10124000040002E0286A40F001002862E06841F2F0
:10125000883B98B1FFF732FD82460BE0286A40F0E8
:1012600004002862EEE700BFFFF728FDA0EB0A01AB
:1012700059455AD8286A8007F6D50CE0FFF71EFDBD
:10128000824605E0FFF71AFDA0EB0A0159454CD84C
:10129000286A8007F6D41FB1E86920F08050E86121
:1012A000E06988B36968C1F38101022944D002284A
:1012B000C6F8608004D0FFF701FD044638E034E052
:1012C000FFF7FCFC074604E0FFF7F8FCC01B022810
:1012D0002BD828688001F7D4206AB0F5803F05D16B
:1012E0006868A16820F4003008436860D4E9080108
:1012F0000843696821F4741108436860C6F8609077
:10130000FFF7DCFC044606E025E000BFFFF7D6FC53
:10131000001B022809D828688001F7D51BE000BF10
:10132000FFF7CCFC001B022802D90320BDE8F88F90
:1013300028688001F4D40EE00128F7D06868226A9A
:1013400000F48031914204D1616A00F47010884247
:1013500001D00120EAE70020E8E700000010024089
:1013600000004242800442422400002000700040FD
:1013700070B5040009D0606A002540B1256165613F
:10138000A56294F8510040B10CE0012070BD606886
:10139000B0F5827FF4D0E561F2E784F85050204642
:1013A00000F040F8022084F851002068016821F024
:1013B00040010160A088218900F4827001F4044199
:1013C0000843A18901F400610843217C01F0020176
:1013D0000843217D01F001010843218B01F40071D4
:1013E0000843217F01F03801084394F8201001F0F0
:1013F00080010843218D01F40051084321680860F1
:10140000A069042101EA1040216848602068C16990
:1014100021F40061C1616565012084F8510000205C
:1014200070BD000030B585B0002400940194029492
:10143000039400681549884225D11548C16941F4D3
:101440008041C161C16901F480410491816941F029
:101450000801816180690F4D00F0080004904FF48D
:101460002040009002200190032003906946284606
:10147000FFF72AFB4FF48040CDE900046946284677
:101480000294FFF721FB05B030BD0000003800409A
:1014900000100240000C01402DE9F84F044690F87E
:1014A000500000271D461646894601280DD04FF0F2
:1014B000010B84F850B0FFF701FC804694F851000E
:1014C000BA46012804D0022793E00220BDE8F88F35
:1014D000B9F1000F73D0002E71D0032084F85100B1
:1014E000C4F854A0C4F83090A686E686C4F838A0A4
:1014F000A4F83CA0A4F83EA0C4F844A0C4F840A0BE
:10150000A068B0F5004F09D12068016821F04001C2
:1015100001602068016841F4804101602068016831
:10152000490603D4016841F040010160E068B0F56C
:10153000006F606803D030B3012E24D041E008B1C1
:10154000012E1CD1206B21680088C86006E020684D
:101550008168890709D5216B0988C160206B801CCF
:101560002063E08E401EE08609E0FFF7A7FBA0EBBA
:101570000800A84202D3681C01D031E07DB3E08EA0
:101580000028E4D120E0206B21680078087306E091
:1015900020688168890709D5216B09780173206B60
:1015A000401C2063E08E401EE0860AE0FFF786FBC9
:1015B000A0EB0800A84203D3681C02D010E017E09B
:1015C0006DB1E08E0028E3D142462946204600F066
:1015D00067FF08B120206065A06818B106E0FFE74A
:1015E000032706E02068C16880680090606D00B144
:1015F000012784F851B084F850A0384666E72DE9F9
:10160000F84F044690F8500000270A9E1D46924667
:101610008B464FF0010901280ED0012084F85000BC
:10162000FFF74CFB804694F85100616801280CD00C
:10163000B1F5827F07D102E00220BDE8F88FA168F2
:1016400009B9042801D00227C2E0BBF1000F27D05E
:10165000BAF1000F24D01DB394F85100042802D031
:10166000052084F8510000206065C4F838A0E587A3
:10167000A587C4F830B0E586A5862064606420683C
:101680000168490603D4016841F040010160E06847
:10169000B0F5006F606805D0E8B3012D46D07FE05B
:1016A000012795E008B1012D39D1206B2168008810
:1016B000C860206B801C2063E08E401EE0862EE018
:1016C0002068816889070FD5E18E69B1B9F1010FF2
:1016D0000AD1216B0988C160206B801C2063E08ED9
:1016E000401EE0864FF0000920688168C9070CD0D1
:1016F000E18F51B1C068A16B0880A06B801CA06312
:10170000E08F401EE0874FF00109FFF7D7FAA0EB0A
:101710000800B04200E009E001D3701C50D1E08E17
:101720000028CDD1E08F0028CAD13FE0206B21688E
:1017300000780873206B401C2063E08E401EE0861A
:101740002EE02068816889070FD5E18E69B1B9F173
:10175000010F0AD1216B09780173206B401C2063B3
:10176000E08E401EE0864FF0000920688168C907BE
:101770000CD0E18F51B1C068A16B0870A06B401C08
:10178000A063E08F401EE0874FF00109FFF796FA53
:10179000A0EB0800B04202D3701C01D010E07EB173
:1017A000E08E0028CDD1E08F0028CAD142463146D4
:1017B000204600F075FE28B101272020606507E073
:1017C000032705E0A06818B92068C1688068009008
:1017D000012084F85100002084F8500038462CE79E
:1017E0007047704710B5040003D094F83D0010B165
:1017F00007E0012010BD002084F83C00204600F0E6
:101800001EF8022084F83D00211D206800F004FF2E
:10181000012084F8460084F83E0084F83F0084F8F4
:10182000400084F8410084F8420084F8430084F8C2
:10183000440084F8450084F83D00002010BD704746
:1018400090F83D10012901D001207047022180F855
:101850003D100168CA6842F00102CA6000680B4985
:10186000884208D0B0F1804F05D00949884202D0A3
:101870000849884204D1816801F00701062903D094
:10188000016841F00101016000207047002C014017
:101890000004004000080040704770B5044600682E
:1018A00001694FF00005C943890715D4C168C943D0
:1018B000890711D4E91E0161012020772068806921
:1018C0008007204602D0FFF7E7FF04E000F098F819
:1018D000204600F096F8257720680169C94349073A
:1018E00017D4C168C943490713D46FF004010161DB
:1018F000022020772068806910F4407F204602D0C3
:10190000FFF7CAFF04E000F07BF8204600F079F80A
:10191000257720680169C943090716D4C168C943FE
:10192000090712D46FF008010161042020772068B4
:10193000C0698007204602D0FFF7AEFF04E000F048
:101940005FF8204600F05DF8257720680169C943FB
:10195000C90617D4C168C943C90613D46FF0100172
:101960000161082020772068C06910F4407F20467C
:1019700002D0FFF791FF04E000F042F8204600F0AB
:1019800040F8257720680169C943C90708D1C168B3
:10199000C943C90704D1891E0161204600F032F80D
:1019A00020680169C943090609D4C168C943090609
:1019B00005D46FF0800101612046FFF711FF206818
:1019C0000169C943490609D4C168C943490605D418
:1019D0006FF040010161204600F01BF820680169AA
:1019E000C94389060BD4C168C943890607D46FF07F
:1019F000200101612046BDE87040FFF7F2BE70BDD6
:101A0000704770470068B0F1804F01D1FFF75CB9B3
:101A10007047704770477047F8B502680446106811
:101A2000D168536910F00F0F4FF0000553D003F049
:101A3000010601F4907737435FD0C20705D0CA058D
:101A400003D5226C42F001022264420705D5DA0771
:101A500003D0226C42F002022264820705D5DA0725
:101A600003D0226C42F004022264020707D501F081
:101A70002002324303D0226C42F008022264226C1E
:101A8000002A34D0800604D5880602D5204600F00E
:101A90009DFE20684069216CC0F38010090700D4C6
:101AA00030B3204600F071FE2068416949061BD51D
:101AB000416921F040014161A06BA8B158494163DF
:101AC000A06BFEF793FE002811D0A06B416B01B014
:101AD000BDE8F040084783060FD58B060DD520469C
:101AE000BDE8F84000F072BE2046FFF794FFF8BD55
:101AF0002046FFF790FF2564F8BD266B2023012EBA
:101B000052D1C60650D5CE064ED51068506800900A
:101B1000506940062AD5A16B086840680004000C93
:101B2000EAD0A68D8642E7D9E0858869202818D0BA
:101B3000D06820F48070D0602068416921F00101F4
:101B400041612068416921F04001416184F83E30E3
:101B500025632068C16821F01001C160A06BFEF709
:101B600021FEA08DE18D401A81B219E0A08DE18D9A
:101B7000401A81B2E08D0028BED00029BCD0D068C8
:101B800020F49070D0602068426922F00102426126
:101B900084F83E3025632068C26822F01002C260DB
:101BA0002046FFF737FFF8BD05062BD50D0629D5D2
:101BB00094F83D002128F6D1A068B0F5805F01D1EE
:101BC0002069B0B1206A411C216221680078486018
:101BD000E08C401E0004000CE084E4D12068C16861
:101BE00021F08001C1602068C16841F04001C160FE
:101BF000F8BD206A0088C0F308005060206A801C8D
:101C00002062E5E74006F3D54806F1D5D1682046C5
:101C100021F04001D16084F83D3000F003F9F8BDB7
:101C20008526000870B5040004D094F83D00002516
:101C300010B106E0012070BD84F83C50204600F051
:101C400023F8242084F83D002068C16821F4005165
:101C5000C160204600F016FE2068016921F4904121
:101C600001612068416921F02A0141612068C16851
:101C700041F40051C1602564202084F83D0084F8BF
:101C80003E00002070BD0000F0B585B0002406467F
:101C9000009401940294039400682C49884252D124
:101CA0002B48816941F480418161816901F480415F
:101CB0000491816941F0040181618069254D00F042
:101CC000040004904FF40070009002200190032063
:101CD000039069462846FEF7F7FE2815CDE9000473
:101CE000694628460294FEF7EFFE1C4D1A488027ED
:101CF00001C5102091C5194845F810496C61AC61C7
:101D0000EC61FEF769FE08B1FEF74AFD75636E628D
:101D10001148134D1430C5E90004C5E902472C6190
:101D20006C61AC612846EC61FEF756FE08B1FEF727
:101D300037FDB5630022052125206E62FFF74AF8C2
:101D40002520FFF739F805B0F0BD0000003801404C
:101D50000010024000080140440002404C010020F5
:101D60009001002090F83E30202B0ED159B152B195
:101D700090F83C30012B08D0012380F83C30002340
:101D8000036300F0DBBD01207047022070470000B4
:101D90000249142201F16C00FFF7E4BF9C0000200F
:101DA0007047000070B5044690F83D00202830D1FF
:101DB00069B362B394F83C0001282AD0012084F86A
:101DC0003C002162A284E28400252564212084F85D
:101DD0003D00636B10489862636B1048D862636B78
:101DE0000F481863606B134645632668606B321DAD
:101DF000FEF720FE21686FF04000086084F83C5038
:101E00002068416941F080014161002070BD0120DE
:101E100070BD022070BD0000532700088127000814
:101E20009526000870477047FEE700002DE9F0474F
:101E300086B000253048009501950295039581698B
:101E400041F010018161816901F010010491816903
:101E500041F020018161816901F0200104918169D3
:101E600041F008018161816901F0080104918169F3
:101E700041F0040181618069DFF8808000F0040096
:101E80004FF400540490002221464046FEF711FF13
:101E9000DFF86CA0002201215046FEF70AFFDFF8B0
:101EA0006490A700002239464846FEF702FF0094DE
:101EB00001240226CDE90246694640460194FEF718
:101EC00003FE01AA009482E8700069465046FEF7BE
:101ED000FBFD01AA009782E8700069464846FEF7BC
:101EE000F3FD4FF440708DE8610069465046FEF7FF
:101EF000EBFD06B0BDE8F087001002400010014085
:101F0000000C0140000801400F4810B50D49016068
:101F10004FF48271416000218160C1604FF4007212
:101F20000161C0E905121822C0E9072141628162FE
:101F30000A21C162FFF71CFA002801D072B6FEE741
:101F400010BD000000380040B0000020FEE7000097
:101F500030B58DB00C46054634216846FEF7E8FAE8
:101F600023462A4609A16846FEF782F982B26946ED
:101F70000948FFF717FF1E2000F042FE0322074921
:101F80000548FFF70FFF0DB030BD000025732E741C
:101F900078743D22257322000801002003000020F0
:101FA000FEE7000010B5002000F0C4F840F0030187
:101FB000002000F053F90122D1030648FEF779FE14
:101FC0009620FEF7C9FB00F071F8BDE8104000F064
:101FD0008FB800000008014070B5054600F050F8C9
:101FE0000024204600F0A6F820F0010040F0020195
:101FF000002000F033F99620FEF7AEFB05222946BB
:10200000A02000F0F5F801221B4ED50329463046EA
:10201000FEF74FFE0F20FEF79FFB002229463046B9
:10202000FEF747FEED11154E04E0641CE4B2962065
:10203000FEF792FB29463046FEF736FE012801D115
:10204000642CF2D9072000F075F8810604D5202110
:10205000072000F003F907E0C00605D5102107208E
:1020600000F0FCF800F044F8082000F063F80446A3
:10207000FFF798FF204670BD00080140000C0140AA
:1020800010B503220749102000F010F900224FF488
:1020900000410548FEF70DFE00F008F8BDE81040CD
:1020A00000F026B8000000200008014038B50DA05F
:1020B0000D4D00684FF40054009000222146284640
:1020C000FEF7F7FD4FF47A73012269460748FFF7E0
:1020D000E3F90120FEF740FB012221462846FEF7E6
:1020E000E8FD38BDE200000000100140B000002013
:1020F00038B50DA00D4D00684FF40054009000223B
:1021000021462846FEF7D5FD4FF47A730122694631
:102110000748FFF7C1F90120FEF71EFB0122214607
:102120002846FEF7C6FD38BDE10000000010014062
:10213000B000002071B583B00020154E8DF804006A
:1021400002464FF4005529463046FEF7B2FD4FF4E3
:102150007A74012301AA03A90E480094FFF74FFAED
:102160009DF80C00072809D0FF208DF808000123F6
:1021700001AA02A907480094FFF741FA0122294663
:102180003046FEF796FD9DF8040004B070BD0000D7
:1021900000100140B0000020F8B512A0124D0068F8
:1021A0004FF400540090002221462846FEF781FD9E
:1021B0004FF47A763346012269460C48FFF76CF9F2
:1021C0000120FEF7C9FA73208DF800003346012282
:1021D00069460648FFF760F9012221462846FEF7C6
:1021E00068FDF8BD5000000000100140B000002064
:1021F0002DE9F74F164D91468A464FF400440022D0
:1022000021462846FEF755FD124FA6100022314602
:102210003846FEF74EFD4FF47A7843460122694670
:102220000D48FFF739F90120FEF796FA43464A4672
:1022300051460948FFF730F9012231463846FEF78A
:1022400038FD012221462846FEF733FDBDE8FE8F0A
:102250000008014000100140B000002073B5114D8E
:102260009DF800004FF4005440F020008DF800006D
:10227000002221462846FEF71CFD4FF47A763346AD
:10228000012269460848FFF707F93346012201A9F0
:102290000548FFF701F9012221462846FEF709FD0E
:1022A0007CBD000000100140B00000202DE9F74384
:1022B000134D9DF80000174640F0200088468DF829
:1022C00000004FF40054002221462846FEF7F1FC9E
:1022D0004FF47A763346012269460A48FFF7DCF864
:1022E0000120FEF739FA33463A4641460548FFF7E2
:1022F000D3F8012221462846FEF7DBFCBDE8FE8329
:1023000000100140B000002010B500224FF4004141
:102310002A48FEF7CEFC41F288342046FEF71CFA2C
:102320003A210020FFF79AFF2046FEF715FA012117
:102330000846FFF793FF2046FEF70EFA0120FFF74D
:10234000F9FE2046FEF708FA01210220FFF786FF7A
:1023500001210320FFF782FF5F210420FFF77EFFAA
:10236000FFF71AFF00211D20FFF778FF00211C2036
:10237000FFF774FF70210720FFF770FF4C21052045
:10238000FFF76CFF2E210620FFF768FF03220C49A0
:102390001020FFF78BFF032209490A20FFF786FF71
:1023A00005211120FFF75AFFFFF7FCFD0122BDE8D0
:1023B000104011460348FEF77CBC000000080140B5
:1023C00000000020000C01406F26244D244C4FF0EB
:1023D00085084FF400771E2000F012FC394628468D
:1023E000FEF762FC30B11E486670401CFFF7F4FD3A
:1023F00001220BE039462846FEF756FC50B9184832
:1024000084F80180401CFFF7E7FD002201212846E7
:10241000FEF74FFC0020FFF78DFEA070024611A1D1
:102420001548FDF725FF0120FFF784FEA070024646
:1024300012A11148FDF71CFF0220FFF77BFEA070E0
:10244000024612A10C48FDF713FF0720FFF772FEAA
:10245000A0700620FFF76EFEA070BCE7000C0140E4
:1024600008000020434F4E4649473A203078253037
:1024700032580D0A0000000088000020454E5F41E0
:10248000413A203078253032580D0A00454E5F52CF
:1024900058414444523A203078253032580D0A00D1
:1024A00038B50B46009204460022802100F008F85F
:1024B000002804D0606D40F020006065032038BD26
:1024C0002DE9F8431E46914688460446089DFEF7CE
:1024D000F5FB401B351AFEF7F1FB0746254800685F
:1024E000C0F3CB30684338E0701C37D0FEF7E6FB12
:1024F000C01BA84203D215B1009860B32CE020683D
:10250000416821F0E00141606068B0F5827F0BD145
:10251000A068B0F5004F02D0B0F5806F04D12068FC
:10252000016821F040010160A06AB0F5005F09D1A7
:102530002068016821F4005101602068016841F4BD
:1025400000510160012084F85100002084F85000FF
:102550000320BDE8F8830025401E009020688168B4
:1025600038EA010004D000214945BDD10020F0E740
:102570000121F9E724000020012000F041FBFBE7E6
:1025800010B5502080F31188BFF34F8FBFF36F8FCA
:1025900000F0E2FF18B104494FF0805008600020BD
:1025A00080F3118810BD000004ED00E030B58FB05D
:1025B00028216846FDF7BCFF14210AA8FDF7B8FFE3
:1025C00001210804CDE900100024029402250491A1
:1025D000CDE907504FF4E01009906846FEF738FD4A
:1025E00008B172B6FEE70F20CDE90A054FF480600E
:1025F000CDE90C4002210AA80E94FEF71DFC00282C
:1026000001D072B6FEE70FB030BD70470148FFF74A
:1026100044B9000028040020F0B50268164B174C9E
:10262000174D4FF08047984205D0B84203D0A042E2
:1026300001D0A84203D122F070064A683243984282
:1026400005D0B84203D0A04201D0A84203D122F461
:102650004074CA6822434C6922F08002224302601F
:102660008A68C2620A688262984201D1096901637C
:1026700001214161F0BD0000002C01400004004038
:102680000008004010B5406A0021C185C184FFF7F1
:10269000C2F910BD70B5446A2068406994F83D10D5
:1026A000C0F3C0100025212904D118B1E5842046CB
:1026B00000F083F82068406994F83E10C0F3801061
:1026C000222904D118B1E585204600F05EF8206C7F
:1026D00040F0100020642046FFF79DF970BD10B552
:1026E0000146406A0968096889061BD40021C18532
:1026F0000168CA6822F48072CA6001684A6922F0DF
:1027000001024A6101684A6922F040024A612021BF
:1027100080F83E10016B012904D10168CA6822F0DB
:102720001002CA60016B012902D0FFF731FB10BD16
:10273000818DFFF76FF910BD10B5406A016B01295B
:1027400002D0FFF72DFB10BD818D4908FFF762F91C
:1027500010BD10B50146406A0968096889060CD4A5
:102760000021C18401684A6922F080024A61006840
:10277000C16841F04001C16010BDFFF753FB10BDBF
:1027800010B5406AFFF74FFB10BD0168CA6822F41C
:102790009072CA6001684A6922F001024A61016BC5
:1027A000012904D10168CA6822F01002CA60202100
:1027B00080F83E100021016370470168CA6822F06A
:1027C000C002CA60202180F83D10704708B590F81B
:1027D0003E10222901D0022008BD82684FF48053A8
:1027E0009A4201D1016921B1816A9A421BD04AB152
:1027F0000AE00268816A5268C2F308020A80816AAC
:10280000891C08E0026972B10268526802F07F0216
:102810000A70816A491C8162C18D491E0904090C34
:10282000C18503D019E002685268F1E70168CA68FF
:1028300022F02002CA600168CA6822F48072CA606D
:1028400001684A6922F001024A61202180F83E10A5
:10285000016B012903D0FFF79BFA002008BD00217E
:1028600001630168CA6822F01002CA6001680A6840
:10287000D20602D50A6849680091818DFFF7CAF82F
:10288000EBE7000070B5044600680169E26821F4D6
:102890004051114301612169A068084361690843FF
:1028A0002168CA6841F20C639A430243CA602068F7
:1028B0004169A26921F44071114341611E492068B8
:1028C000884202D1FEF77EFB01E0FEF76BFB00EBD6
:1028D000C00101EB0012606864218000B2FBF0F3DC
:1028E000B3FBF1F36FF018067343B2FBF0F5B2FBE4
:1028F000F0F605EB8305322303EB0515B5FBF1F587
:10290000B6FBF1F605F0F00505EB0615B2FBF0F6A7
:10291000B2FBF0F0B0FBF1F06FF01802504306EBA1
:10292000800003EB0010B0FBF1F0216800F00F0015
:102930002844886070BD00000038014038B58162CD
:1029400082850025134604460564222084F83E0053
:10295000A26B13489062A26B1248D062A26B12481D
:102960001063A06B0A4645632168A06B091DFEF742
:1029700061F8206801684168009184F83C50C168A2
:1029800041F48071C1602068416941F001014161F9
:102990002068416941F040014161002038BD0000DC
:1029A000DF26000839270008952600080148FFF7B0
:1029B00033B8000008010020FEE70907090E0028CF
:1029C00004DB00F1E02080F80014704700F00F00F5
:1029D00000F1E02080F8141D704730380A2801D239
:1029E00001207047002070472038072813D2DFE805
:1029F00000F00406080A0C0E100008A070470BA097
:102A000070470CA070470EA0704710A0704712A02E
:102A1000704714A0704717A070470000414343451A
:102A20004C450D0A524154494F4E0000534B494406
:102A3000504144004155544F0D0A43524F535300E7
:102A4000545241434B445249564500004542530DB0
:102A50000A54455354000000494E535045435449CD
:102A60004F4E00004D414E55414C0D0A44524956BF
:102A7000494E47004552524F5200000096B0FEF7B3
:102A80002BF9FFF793FDFFF7D1F9FFF73DFA454822
:102A9000416941F0010141614069002200F00100FB
:102AA000159005210E20FEF795F90E20FEF784F90A
:102AB000002205210F20FEF78DF90F20FEF77CF98B
:102AC0003A4839490C2201604FF416514160002107
:102AD0008160C160C0E904128161C161FFF7A2F8A1
:102AE00008B172B6FEE7012251033148FEF7E1F862
:102AF000FFF70AFC0020FFF71DFB2E4CA070C8203A
:102B0000FDF7D0FF601CFFF767FA1C222A496846D0
:102B1000FDF7DCFC0021684600F07FF82649606084
:102B20001C221C3107A8FDF7D1FC002107A800F0EA
:102B300074F82149A0601C2238310EA8FDF7C6FCAC
:102B400000210EA800F069F8E06000F061F81E2096
:102B5000FDF7A8FF0020FFF7EDFAA070024613482A
:102B600016A18038FDF784FB0120FFF7E3FAA0707F
:102B700002460E4816A18038FDF77AFB0220FFF7C7
:102B8000D9FAA0700246094815A18038FDF770FBFC
:102B90000720FFF7CFFAA0700620FFF7CBFAA0704E
:102BA000D5E7000000100240003801400801002075
:102BB0000010014008000020F4360008434F4E4644
:102BC00049473A203078253032580D0A000000007D
:102BD000454E5F41413A203078253032580D0A0089
:102BE000454E5F5258414444523A203078253032A5
:102BF000580D0A000021842800D0C11C08467047E7
:102C000010B5002800D1012000F042FB002010BDCB
:102C100010B500F065FB002010BD30B585B004464E
:102C20000D466169B4F90800002910D0A16971B19D
:102C3000FFF7E0FF6269A1690192029100902B46C3
:102C400022692168606800F057FC049010E0FFF7EB
:102C5000D1FF04A901910090208A2B4682B22168FD
:102C6000606800F013FC012802D005B0002030BDE0
:102C7000049805B030BD00002DE9F04104460F4630
:102C8000194E75693068001D00F038FA48B930688F
:102C9000012190F82C0001FA00F0B16921EA00004E
:102CA000B061B4F1FF3F07D137B13068BDE8F04102
:102CB000011D0E4800F069BA2C4430684460AC42F3
:102CC00006D23068011DB068BDE8F04100F042BA9C
:102CD0003068011D706800F03DFA306B844200D20C
:102CE0003463BDE8F0810000280000204C0500207E
:102CF00070B5044600F056FA1C4D2869401C286146
:102D0000286810B1E86938B10CE02C602869012806
:102D100008D100F0E7F805E02868E16AC06A884257
:102D200000D82C60E86A401CE862E06A0121AA69C8
:102D300081401143A9610E4900EB800001EB800046
:102D4000211D00F022FA00F04DFAE86900280CD0AD
:102D50002868E16AC06A884207D206494FF080506D
:102D60000860BFF34F8FBFF36F8F70BD2800002046
:102D70007004002004ED00E070B50D4CE068002800
:102D800015D00C4E00F00EFAF068C568281D00F052
:102D9000B5F92069401E2061E068401EE06000F047
:102DA00021FA284600F008F8E0680028EAD170BD52
:102DB000280000203805002010B5044694F8511072
:102DC00000290BD0012911D0022914D0502080F302
:102DD0001188BFF34F8FBFF36F8FFEE7206B00F0BA
:102DE00017FA2046BDE8104000F012BA2046BDE8B0
:102DF000104000F00DBA10BD4FF44061104810F0C3
:102E0000070F06D0C01D20F007000D49411AC1F57B
:102E100040610C4A1060002353600144083921F0DE
:102E20000701103A11604B600B600B1A43600160A0
:102E30004068906050604FF00040D06070470000E4
:102E40006005002074000020074E4FF08054074DAD
:102E5000FFF792FF30680128FAD92C60BFF34F8F3B
:102E6000BFF36F8FF4E700007004002004ED00E072
:102E70002DE9F0478146099E089D0A9C9A46521EFC
:102E8000206B00EB820020F00708002700202318A9
:102E90000A5C83F834200A5C12B1401C1028F6D377
:102EA00084F84370072D00D30625E5626564A764A6
:102EB000201D00F04CF904F1180000F048F92461DD
:102EC000C5F10700A0616462E76484F8507052465F
:102ED0004946404600F000F92060002E00D03460E2
:102EE000BDE8F08770B500240F4D04EB840005EBBE
:102EF000800000F021F9641C072CF6D30B4800F089
:102F00001BF90B4800F018F90A4800F015F90A48B7
:102F100000F012F9094800F00FF90948034941602F
:102F20001431816070BD000070040020FC0400209A
:102F30001005002024050020380500204C05002045
:102F40002800002010B4144900E011460A688242AB
:102F5000FBD34B6803EB010C844503D14068184454
:102F6000486008460C68D0F804C00CEB0003A3428C
:102F70000CD10A4B1B689A4206D0526862444260E8
:102F80000A681268026002E0036000E002608142A9
:102F900000D0086010BC704774000020640000205E
:102FA000074948680068002805D04868C068C068BC
:102FB0004068086370474FF0FF30086370470000B7
:102FC000280000200A484068B0F1FF3F07D0502099
:102FD00080F31188BFF34F8FBFF36F8FFEE7502050
:102FE00080F31188BFF34F8FBFF36F8FFEE70000B0
:102FF0007C0000202DE9F0410546002600F0B4F9E0
:10300000334F386808B9FFF7F7FEF86805424ED12C
:103010009DB1083515F0070F0FD005F00700C0F17E
:103020000800054415F0070F07D0502080F31188E1
:10303000BFF34F8FBFF36F8FFEE7002D37D0786857
:10304000854234D823490846046801E021460446F5
:103050006068A84202D220680028F7D1386884420C
:1030600025D0086800F10806206808606068411BE8
:1030700010290FD9601910F0070F07D0502080F3E6
:103080001188BFF34F8FBFF36F8FFEE7416065601C
:10309000FFF758FF61687868401A7860BA68904214
:1030A00000D2B860F868084360600020206000F03B
:1030B000BBFA16F0070F07D0502080F31188BFF33A
:1030C0004F8FBFF36F8FFEE73046BDE8F081000001
:1030D0006400002074000020001F4FF08073036024
:1030E000001F21F001010160001F03490160143835
:1030F0000260203870470000C52F0008016943684E
:1031000082689A60836842685A604A68824201D144
:1031100082684A60002202610868401E08600868F0
:1031200070470000034B036003F1540008608020E7
:1031300010607047D401002000F1080141604FF099
:10314000FF328260C160016100210160704700218F
:103150000161704710B4D1F800C0BCF1FF3F02D04C
:1031600000F1080202E0026904E01A4653681C6894
:103170006445FAD953684B6099608A605160086170
:103180000168491C016010BC704742684A6093683E
:103190008B6093685960916008610168491C016007
:1031A00070470000502080F31188BFF34F8FBFF3AA
:1031B0006F8F0A494868401C486001280CD10848B4
:1031C000006810F0FF0F07D0502080F31188BFF384
:1031D0004F8FBFF36F8FFEE7704700007C00002029
:1031E00004ED00E009494868002806D0401E486008
:1031F000002801D180F311887047502080F3118896
:10320000BFF34F8FBFF36F8FFEE700007C000020FD
:1032100070B5002827D0A0F10804134D6068E96854
:10322000084207D1502080F31188BFF34F8FBFF3BE
:103230006F8FFEE722683AB1502080F31188BFF308
:103240004F8FBFF36F8FFEE78843606000F08CF80C
:1032500060686968084468602046FFF773FEBDE84F
:10326000704000F0E1B970BD640000204FF0E02034
:1032700000210161816105494FF47A720968B1FB4F
:10328000F2F1491E416107210161704724000020CD
:1032900010B502460020002A12D00F48806B38B1CA
:1032A000502080F31188BFF34F8FBFF36F8FFEE77D
:1032B00000F05AF800211046FFF7DEFC00F0B4F9E8
:1032C000002807D105494FF080500860BFF34F8FA9
:1032D000BFF36F8F10BD00002800002004ED00E058
:1032E00010B586B000240594049403AA04A905A887
:1032F000FFF718FF059804990191029000230094AC
:1033000015A11748039A00F0F7F81649486308B169
:10331000012000E0002001280AD0B0F1FF3F19D1C0
:10332000502080F31188BFF34F8FBFF36F8FFEE7FC
:10333000502080F31188BFF34F8FBFF36F8F4FF092
:10334000FF3008630120C8614C6106B0BDE8104041
:1033500000F042B806B010BD49444C4500000000E2
:10336000492E0008280000200248816B491C816317
:103370007047000028000020154A906B002802D0FA
:10338000012050627047002050629069B0FA80F0CE
:10339000C0F11F000F4900EB800051F8203073B1DD
:1033A00001EB800041684968416000F108039942DF
:1033B00001D1496841604068C06810607047502082
:1033C00080F31188BFF34F8FBFF36F8FFEE70000CC
:1033D000280000207004002000B583B02849087838
:1033E0000290FF200870087801909DF804009DF875
:1033F000042000F0F000904207D0502080F31188A4
:10340000BFF34F8FBFF36F8FFEE79DF804001D4B96
:1034100000F050001870072098609DF8040010F02C
:10342000800F0BD09868401E98609DF80400400003
:1034300001909DF8040010F0800FF3D198680328E4
:1034400007D0502080F31188BFF34F8FBFF36F8FE9
:10345000FEE74FF440709860029808700A480168CF
:1034600041F470010160016841F070410160FFF7B3
:10347000FDFE00205860FCF7A1FE03B0002000BD57
:1034800000E400E07C00002020ED00E02DE9F04F9A
:1034900085B081460F9F0E9E8A4690469B464FEA16
:1034A0008800FFF7A7FD054628000AD05420FFF743
:1034B000A1FD04460CB1256304E02846FFF7A8FEF1
:1034C00000E000249CB1002084F8510003905B468A
:1034D000424651460197009602944846FFF7C8FCC1
:1034E0002046FFF705FC05B00120BDE8F08F05B0D0
:1034F0004FF0FF30BDE8F08F70B586B00646DDF8BE
:1035000028C00C9C0B98002816D0ECB154250495CB
:103510002063022084F85100002005AD0390CDF80F
:1035200000C0019502943046FFF7A2FC2046FFF749
:10353000DFFB059806B070BD502080F31188BFF303
:103540004F8FBFF36F8FFEE7502080F31188BFF3DA
:103550004F8FBFF36F8FFEE72DE9F0470026304F06
:10356000B86B002808D0386A401C3862786A00B10D
:1035700001263046BDE8F0877869451C7D619DB91C
:103580007868006838B1502080F31188BFF34F8FFE
:10359000BFF36F8FFEE77868B9687960B860B86A82
:1035A000401CB862FFF7FCFC386BDFF8788085427E
:1035B0000FD34FF001097868006838B17868C068A7
:1035C000C468606885420ED2386302E04FF0FF3075
:1035D00038633868C06A00EB800058F82000012882
:1035E000C4D90126C2E7201DFFF788FDA06A18B1E3
:1035F00004F11800FFF782FDE16ABA6909FA01F0E7
:103600001043B86101EB810008EB8000211DFFF73A
:10361000BCFDE06A3968C96A8842CCD30126CAE792
:1036200028000020700400202DE9F0470024A04667
:103630002D4DA86B002807D0FFF7B4FDA86B401EE6
:10364000A863A86B40B149E0502080F31188BFF314
:103650004F8FBFF36F8FFEE7286900283ED0234FBE
:103660003868012600B3A7F1B409F868C46804F10A
:103670001800FFF743FD201DFFF740FDE06AAA692F
:1036800006FA00F11143A96100EB800009EB80000C
:10369000211DFFF77AFDE06A2968C96A884200D3D4
:1036A0006E6238680028E0D10CB1FFF779FC2C6A13
:1036B00044B1FFF751FF00B16E62641E002CF8D1D7
:1036C00000202862686A48B14FF0010808494FF0AD
:1036D00080500860BFF34F8FBFF36F8FFFF782FDFD
:1036E0004046BDE8F08700002800002024050020A7
:1036F00004ED00E09C370008792500080000000078
:103700000000000080000000000000000000000039
:10371000A8370008C92300080000000000000000CE
:10372000800000000000000000000000B03700082A
:103730008107000800000000000000008000000079
:103740000000000000000000000000000000000079
:103750000102030406070809000000000102030437
:1037600030313233343536373839414243444546B7
:1037700040305800303132333435363738396162B1
:1037800063646566403078000400000800000000B3
:103790000000000200010000100000006465666186
:1037A000756C745461736B00526164696F00000042
:1037B000446973706C617900D837000800000020FC
:1037C00088000000280100086038000888000020F8
:1037D0003817000044010008B3B401FFFFFF0000E8
:1037E00020000000000000000000000000000000B9
:1037F0000100000010000000000000000024F400A0
:1038000000000000000000000000000000000000B8
:1038100000000000000000000000000000000000A8
:103820000000000000000000000000000000000098
:103830000000000000000000000000000000000088
:103840000000000000000000000000000000000078
:103850000000000000000000AAAAAAAA00000000C0
:04000005080000ED02
:00000001FF
